:03000000020F35B7
:0C0F3500787FE4F6D8FD75813102016D73
:1007E5005649425241544F4D4F0053454C45432EB7
:1007F5002056454C4F43494441442020202850521F
:100805004553204F4B292020202000302E35206DC8
:100815006D2F736567202020202020302E37206D16
:100825006D2F73656720202020200056454C3A2007
:10083500302E35206D6D2F73656720202050455370
:100845005320494E4943494152202000434F5254B9
:10085500414E444F20434F4E2020202056454C3AD0
:1008650020302E35206D6D2F736567200056454C61
:100875003A20302E37206D6D2F736567202020506C
:1008850045535320494E4943494152202000434F87
:100895005254414E444F20434F4E20202020564570
:1008A5004C3A20302E37206D6D2F73656720003050
:1008B5002E39206D6D2F7365672020202020203173
:1008C5002E31206D6D2F736567202020202020009C
:1008D50056454C3A20302E39206D6D2F73656720B3
:1008E50020205045535320494E4943494152202029
:1008F50000434F5254414E444F20434F4E20202039
:100905002056454C3A20302E39206D6D2F73656782
:10091500200056454C3A20312E31206D6D2F7365E0
:10092500672020205045535320494E4943494152A1
:10093500202000434F5254414E444F20434F4E20F8
:1009450020202056454C3A20312E31206D6D2F73D5
:1009550065672000312E33206D6D2F73656720206C
:1009650020202020312E35206D6D2F7365672020C6
:1009750020202020200056454C3A20312E33206D72
:100985006D2F7365672020205045535320494E49EC
:1009950043494152202000434F5254414E444F2079
:1009A500434F4E2020202056454C3A20312E3320EF
:1009B5006D6D2F736567200056454C3A20312E35F5
:1009C500206D6D2F736567202020504553532049B6
:1009D5004E4943494152202000434F5254414E4411
:1009E5004F20434F4E2020202056454C3A20312E93
:1009F50035206D6D2F7365672000312E37206D6DA5
:100A05002F736567202020202020312E39206D6D21
:100A15002F736567202020202020200056454C3A62
:100A250020312E37206D6D2F7365672020205045AE
:100A3500535320494E4943494152202000434F52C8
:100A450054414E444F20434F4E2020202056454CC4
:100A55003A20312E37206D6D2F736567200056457E
:100A65004C3A20312E39206D6D2F7365672020207B
:100A75005045535320494E49434941522020004394
:100A85004F5254414E444F20434F4E202020205674
:100A9500454C3A20312E39206D6D2F736567200046
:100AA500494E54524F44554343495220202020205B
:100AB50056454C4F434944414420202020202020C6
:100AC5000056454C3A20302E30206D6D2F736567EA
:100AD5002020202020202020202020202020202011
:100AE5000056454C3A20782E78206D6D2F7365673A
:100AF5002020205045535320494E49434941522017
:100B05002000434F5254414E444F20434F4E202026
:100B1500202056454C3A20582E58206D6D2F736570
:100B2500672000524554495245204D55455354526E
:100B350041205950524553494F4E45204F4B202097
:100B4500202020002020204553504552452E2E2E92
:100B55002020202020202020202020202020202090
:100B6500202020200050524F424C454D4120434FFC
:100B75004E204452565245494E494349415220451B
:100B8500515549504F004F5452412056454C4F4303
:100B950049444144202050524543494F4E4152203B
:070BA5004F4B20202020002F
:10016D00120110120CF37BFF7A0779E57D04120D55
:10017D0049120BAC120F28120F417A0779EF120DAD
:10018D0045D2A720A7FDE4F517F513F515120E6955
:10019D00E4F515E517C3940240030202B57A087918
:1001AD0010120D45120F57E5177003FF80027F28BF
:1001BD00120F1A7F0D120ED4E517C39402400302DD
:1001CD0002B5E515640170030202B5209310E51721
:1001DD00B4010BE4FF120F1AE4F517120E69209209
:1001ED000FE517700B7F28120F1A751701120E6984
:1001FD0020920BE517B40106751702120E6920A7A0
:10020D00B7120E69E4F513E51714604E0470A9E5F5
:10021D0015640160A37F0C120ED4E51370107BFFE3
:10022D007A087930FD120D49120F5775130220947B
:10023D0024120E69751605AF16120E107BFF7A0883
:10024D007951E4FD120D49120105120CA01201099C
:10025D00E4F517F513120E4280B5E5156401700330
:10026D000201C57F0C120ED4E51370107BFF7A08C6
:10027D007972FD120D49120F577513022094241235
:10028D000E69751607AF16120E107BFF7A0879935B
:10029D00E4FD120D49120105120CA0120109E4F53D
:1002AD0017F513120E4280B2E517D39401500302D5
:1002BD0003F1E517940440030203F17BFF7A0879FB
:1002CD00B4E4FD120D49120F4D120F57E517B4028C
:1002DD0004E4FF80027F28120F1A7F0D120ED4E561
:1002ED0017D3940150030203F1E517940440030260
:1002FD0003F1209310E517B4020BE4FF120F1A75EA
:10030D001701120E69209310E517B4030BE4FF12C9
:10031D000F1A751702120E69209210E517B4020B11
:10032D007F28120F1A751703120E6920920BE5170D
:10033D00B40306751704120E6920A7A3E4F5131272
:10034D000E69E51724FD604E047094E51564016097
:10035D008E7F0C120ED4E51370107BFF7A0879D5C1
:10036D00FD120D49120F57751302209424120E69B8
:10037D00751609AF16120E107BFF7A0879F6E4FD9B
:10038D00120D49120105120CA0120109E4F517F521
:10039D0013120E4280B5E515640170030202EC7F65
:1003AD000C120ED4E51370107BFF7A097917FD122C
:1003BD000D49120F57751302209424120E697516EC
:1003CD000BAF16120E107BFF7A097938E4FD120D72
:1003DD0049120105120CA0120109E4F517F51312CB
:1003ED000E4280B2E517D394035003020530E51792
:1003FD00940640030205307BFF7A097959E4FD121A
:10040D000D49120F57120F4DE517B40404E4FF8088
:10041D00027F28120F1A7F0D120ED4120E69E517E6
:10042D00D394035003020530E517940640030205EB
:10043D0030209310E517B4040BE4FF120F1A751753
:10044D0003120E69209310E517B4050BE4FF120F8C
:10045D001A751704120E69209210E517B4040B7F5C
:10046D0028120F1A751705120E6920920BE517B495
:10047D000506751706120E6920A7A3120E69E4F57D
:10048D0013E51724FB604E047094E5156401608E2E
:10049D007F0C120ED4E51370107BFF7A09797BFD6A
:1004AD00120D49120F57751302209424120E6975FF
:1004BD00160DAF16120E107BFF7A09799CE4FD1212
:1004CD000D49120105120CA0120109E4F517F513DF
:1004DD00120E4280B5E5156401700302042B7F0CEA
:1004ED00120ED4E51370107BFF7A0979BDFD120D44
:1004FD0049120F57751302209424120E6975160FA9
:10050D00AF16120E107BFF7A0979DEE4FD120D494C
:10051D00120105120CA0120109E4F517F513120EC4
:10052D004280B2E517D39405500302066FE5179488
:10053D0008400302066F7BFF7A0979FFE4FD120D77
:10054D0049120F4D120F57E517B40604E4FF800250
:10055D007F28120F1A7F0D120ED4120E69E517D3D4
:10056D009405500302066FE5179408400302066FC9
:10057D00209310E517B4060BE4FF120F1A7517053B
:10058D00120E69209310E517B4070BE4FF120F1A32
:10059D00751706120E69209210E517B4060B7F2809
:1005AD00120F1A751707120E6920920BE517B40773
:1005BD0006751708120E6920A7A3120E69E4F5132C
:1005CD00E51724F9604E047094E5156401608E7F83
:1005DD000C120ED4E51370107BFF7A0A7921FD12EF
:1005ED000D49120F57751302209424120E697516BA
:1005FD0011AF16120E107BFF7A0A7942E4FD120D2F
:10060D0049120105120CA0120109E4F517F5131298
:10061D000E4280B5E5156401700302056A7F0C1268
:10062D000ED4E51370107BFF7A0A7963FD120D4924
:10063D00120F57751302209424120E69751613AFFD
:10064D0016120E107BFF7A0A7984E4FD120D491201
:10065D000105120CA0120109E4F517F513120E4253
:10066D0080B2E517640860030207DA7BFF7A0A7926
:10067D00A5FD120D49120F4DE4FF120F1A7F0D1239
:10068D000ED4120E69E517640860030207DAE5154A
:10069D00640170030207DA209310E517B4080BE428
:1006AD00FF120F1A751707120E6920A7D8120E69BF
:1006BD00751301E4F5177BFF7A0A79C6FD120D4912
:1006CD007F2D120F1AE4FF120EAE7F2F120F1AE4B8
:1006DD00FF120EAE7F05120F1AE513C3940F502BA8
:1006ED0020921D120E69120EA985131705137F0591
:1006FD00120F1AE513B40A08E4F5137F05120F1A49
:10070D0020A7D6120E6975130F80CE751301E4F56F
:10071D00147F07120F1AE513C3940B50262092185D
:10072D00120E69120EA985131405137F07120F1AE5
:10073D00E513B40A03E4F51320A7DB120E69751354
:10074D000B80D3E4F5137F0C120ED4E51564017004
:10075D0003020692E513702A7BFF7A0A79E6FD12F1
:10076D000D497F05120F1AE5172430FF120EAE7FCB
:10077D0007120F1AE5142430FF120EAE120F577523
:10078D001302209442120E69E51775F00AA4251480
:10079D00F516FF120E107BFF7A0B7907E4FD120D93
:1007AD00497F2D120F1AE5172430FF120EAE7F2F41
:1007BD00120F1AE5142430FF120EAE120105120CA1
:1007CD00A0120109E4F513120E42020758E517C3F2
:0807DD00940A500302019D2261
:100E10007E007C017D8012001FAB07AA06E4F9F872
:100E20007F807E967D981C120D91AD07AC06ED2457
:100E3000F6EC34FFFFC374FF9FF530C374099DF5D2
:010E40003180
:010E4100228E
:03000300020DD516
:100DD500C0E0C0F0C083C082C0D075D000C000C0E4
:100DE50001C002C003C004C005C006C007120E8AB8
:100DF500D007D006D005D004D003D002D001D00052
:0B0E0500D0D0D082D083D0F0D0E032FB
:100E8A00120E697BFF7A0B7928E4FD120D4920A71F
:0F0E9A00FD120E697BFF7A0B7949E4FD020D49C9
:100CA000E4F508C2B4120130D2B412013012010DC1
:100CB0001201411201302090101201107BFF7A0BBB
:100CC000796AE4FD120D4980FEC3E5086480949EB4
:100CD000500712014D050880F012016AE4F5083052
:100CE000900E1201630508C3E5086480949E40EFEE
:030CF000020110EE
:100BAC007F40120ED4120EC1120EF9120EC17F41EB
:100BBC00120ED4120EC1120EF9120EC17F42120E79
:100BCC00D4120EC1120EF9120EC17F43120ED412A2
:100BDC000EC1120EF9120EC17F44120ED4120EC1A8
:100BEC00120EF9120EC17F45120ED4120EC1D2A5EF
:100BFC007F15120EFD120EC17F46120ED4120EC1BD
:100C0C00D2A57F0E120EFD120EC17F47120ED4120A
:100C1C000EC1120EF9120EC17F48120ED4120EC163
:100C2C00120EF9120EC17F49120ED4120EC1D2A5AA
:100C3C007F0E120EFD120EC17F4A120ED4120EC17F
:100C4C00D2A57F15120EFD120EC17F4B120ED412BF
:100C5C000EC1120EF9120EC17F4C120ED4120EC11F
:100C6C00120EF9120EC17F4D120ED4120EC1120EBD
:100C7C00F9120EC17F4E120ED4120EC1120EF912C1
:100C8C000EC17F4F120ED4120EC1120EF97DB0E4BC
:040C9C00FF020EC580
:0A0F4D007F0F120F1A7F01020EAE93
:0A0F57007F37120F1AE4FF020EAEFE
:100E4200209206751301120E69E513B40103120E06
:100E5200E7209306E4F513120E6920A709120E6922
:070E6200751501E4F51722EC
:100E6900120EC1120EC130A7FD3092FA3093F7303D
:100E790094F4120EC1120EC1D2A7D292D293D29477
:010E89002246
:100EE7007BFF7A0B798BE4FD120D49120F4D7513B9
:020EF7000222D5
:100CF3007D267FC1120EC575A003120100E4FD7F9E
:100D0300EC120EC575A0031201007D387FFF120E91
:100D1300C575A003120100E4FD7FEC120EC575A09A
:100D230002120100E4FD7FEC120EC57F28120ED4DF
:100D33007F08120ED4120F417F06120ED47F0C02CD
:020D43000ED4CC
:0C0F41007F01120ED47D7C7FB1020EC532
:040EC1007DB0E4FF1D
:0F0EC5007589018F8C8D8AD28C308DFDC28D2264
:0C0F2800E4FEE4FDFF120EC50EBE1EF636
:010F3400229A
:100ED40053A0C053A0DF53A0EF120EFD7D7E7FFF11
:030EE400020EC536
:040D45007BFFE4FD4F
:100D49008B0E8A0F89108D11AF11120F1AAB0EAAD3
:100D59000FA910120006602FE511B410077F288F24
:100D690011120F1AAB0EAA0FA910120006FF120ECC
:100D7900AE7DD37FFF120EC5051174012510F51044
:080D8900E4350FF50F80C622CE
:0E0F1A00EF4480FF120ED47D387FFF020EC51B
:050EA900E5132430FFF9
:100EAE0053A0C043A02053A0EF120EFD7DD37FFFB1
:030EBE00020EC55C
:040EF900D2A57F04FB
:0E0EFD008F12120F0BE512C454F0FF020F0B00
:0F0F0B005307F053A0F0EFC4540F42A0020100AF
:10010000D2A6C2A62275A8812275A80022D2B52245
:10011000C2B5227EFF7F30312122AE30AF31312196
:10012000227589018E8C8F8AD28C308DFDC28D22F2
:10013000758901758CF8758A62D28C308DFDC28DFF
:1001400022D29122D2B30000C2B30000227A0C79ED
:10015000203144311AD9FADAF622792031443113A8
:0D016000D9FA227A0C315ADAFC22C291221F
:10000600BB010689828A83E0225002E722BBFE02F8
:09001600E32289828A83E493222B
:10001F00EF8DF0A4A8F0CF8CF0A428CE8DF0A42EF5
:02002F00FE22AF
:100D9100C2D5E830E70FB2D5E4C39BFBE49AFAE48D
:100DA10099F9E498F8EC30E717B2D5120DC71200A3
:100DB1006DE4C39BFBE49AFAE499F9E498F88003A3
:100DC10012006D30D50DE4C39FFFE49EFEE49DFD4E
:040DD100E49CFC2280
:1000310075F008758200EF2FFFEE33FECD33CDCC86
:1000410033CCC58233C5829BED9AEC99E582984009
:100051000CF582EE9BFEED9AFDEC99FC0FD5F0D6E6
:10006100E4CEFBE4CDFAE4CCF9A88222B800C1B910
:100071000059BA002DEC8BF084CFCECDFCE5F0CB4E
:10008100F97818EF2FFFEE33FEED33FDEC33FCEB87
:1000910033FB10D703994004EB99FB0FD8E5E4F942
:1000A100FA227818EF2FFFEE33FEED33FDEC33FC2F
:1000B100C933C910D7059BE99A4007EC9BFCE99A23
:1000C100F90FD8E0E4C9FAE4CCFB2275F010EF2F68
:1000D100FFEE33FEED33FDCC33CCC833C810D70768
:1000E1009BEC9AE899400AED9BFDEC9AFCE899F8A3
:0E00F1000FD5F0DAE4CDFBE4CCFAE4C8F92236
:00000001FF
